{
  "contractName": "Perscription",
  "abi": [
    {
      "constant": true,
      "inputs": [],
      "name": "provider",
      "outputs": [
        {
          "name": "",
          "type": "address"
        }
      ],
      "payable": false,
      "stateMutability": "view",
      "type": "function"
    },
    {
      "constant": true,
      "inputs": [],
      "name": "startDate",
      "outputs": [
        {
          "name": "",
          "type": "uint256"
        }
      ],
      "payable": false,
      "stateMutability": "view",
      "type": "function"
    },
    {
      "constant": true,
      "inputs": [],
      "name": "signed",
      "outputs": [
        {
          "name": "",
          "type": "bool"
        }
      ],
      "payable": false,
      "stateMutability": "view",
      "type": "function"
    },
    {
      "constant": true,
      "inputs": [],
      "name": "total",
      "outputs": [
        {
          "name": "",
          "type": "uint256"
        }
      ],
      "payable": false,
      "stateMutability": "view",
      "type": "function"
    },
    {
      "constant": true,
      "inputs": [],
      "name": "drugID",
      "outputs": [
        {
          "name": "",
          "type": "uint256"
        }
      ],
      "payable": false,
      "stateMutability": "view",
      "type": "function"
    },
    {
      "constant": true,
      "inputs": [],
      "name": "doctorID",
      "outputs": [
        {
          "name": "",
          "type": "uint256"
        }
      ],
      "payable": false,
      "stateMutability": "view",
      "type": "function"
    },
    {
      "constant": true,
      "inputs": [
        {
          "name": "",
          "type": "uint256"
        }
      ],
      "name": "paymentsRecieved",
      "outputs": [
        {
          "name": "",
          "type": "uint256"
        }
      ],
      "payable": false,
      "stateMutability": "view",
      "type": "function"
    },
    {
      "constant": true,
      "inputs": [],
      "name": "costPerDose",
      "outputs": [
        {
          "name": "",
          "type": "uint256"
        }
      ],
      "payable": false,
      "stateMutability": "view",
      "type": "function"
    },
    {
      "constant": true,
      "inputs": [],
      "name": "dosage",
      "outputs": [
        {
          "name": "",
          "type": "uint256"
        }
      ],
      "payable": false,
      "stateMutability": "view",
      "type": "function"
    },
    {
      "constant": true,
      "inputs": [],
      "name": "patient",
      "outputs": [
        {
          "name": "",
          "type": "address"
        }
      ],
      "payable": false,
      "stateMutability": "view",
      "type": "function"
    },
    {
      "constant": true,
      "inputs": [],
      "name": "endDate",
      "outputs": [
        {
          "name": "",
          "type": "uint256"
        }
      ],
      "payable": false,
      "stateMutability": "view",
      "type": "function"
    },
    {
      "constant": true,
      "inputs": [],
      "name": "frequencyOfDose",
      "outputs": [
        {
          "name": "",
          "type": "uint256"
        }
      ],
      "payable": false,
      "stateMutability": "view",
      "type": "function"
    },
    {
      "constant": true,
      "inputs": [],
      "name": "numberOfDoses",
      "outputs": [
        {
          "name": "",
          "type": "uint256"
        }
      ],
      "payable": false,
      "stateMutability": "view",
      "type": "function"
    },
    {
      "inputs": [
        {
          "name": "incDrugID",
          "type": "uint256"
        },
        {
          "name": "incDosage",
          "type": "uint256"
        },
        {
          "name": "incNumberOfDoses",
          "type": "uint256"
        },
        {
          "name": "incFrequencyOfDose",
          "type": "uint256"
        }
      ],
      "payable": false,
      "stateMutability": "nonpayable",
      "type": "constructor"
    },
    {
      "constant": false,
      "inputs": [
        {
          "name": "accCostPerDose",
          "type": "uint256"
        },
        {
          "name": "accStartDate",
          "type": "uint256"
        },
        {
          "name": "accEndDate",
          "type": "uint256"
        },
        {
          "name": "accProvider",
          "type": "address"
        }
      ],
      "name": "providerSignWithTerms",
      "outputs": [],
      "payable": false,
      "stateMutability": "nonpayable",
      "type": "function"
    },
    {
      "constant": false,
      "inputs": [
        {
          "name": "paymentAmount",
          "type": "uint256"
        }
      ],
      "name": "recievePayment",
      "outputs": [],
      "payable": false,
      "stateMutability": "nonpayable",
      "type": "function"
    },
    {
      "constant": false,
      "inputs": [],
      "name": "remainingPayment",
      "outputs": [
        {
          "name": "",
          "type": "uint256"
        }
      ],
      "payable": false,
      "stateMutability": "nonpayable",
      "type": "function"
    },
    {
      "constant": false,
      "inputs": [],
      "name": "getDosage",
      "outputs": [
        {
          "name": "",
          "type": "uint256"
        }
      ],
      "payable": false,
      "stateMutability": "nonpayable",
      "type": "function"
    }
  ],
  "bytecode": "0x60806040526201e24060045534801561001757600080fd5b506040516080806107b78339810180604052810190808051906020019092919080519060200190929190805190602001909291908051906020019092919050505033600560006101000a81548173ffffffffffffffffffffffffffffffffffffffff021916908373ffffffffffffffffffffffffffffffffffffffff160217905550836000819055508260018190555081600281905550806003819055506000600560146101000a81548160ff021916908315150217905550505050506106d4806100e36000396000f3006080604052600436106100f1576000357c0100000000000000000000000000000000000000000000000000000000900463ffffffff168063085d4883146100f65780630b97bc861461014d578063232a6b9d146101785780632ddbd13a146101a75780633427b432146101d257806346f9c5bb146101fd578063519c25bb146102285780636c7c38421461026957806379a6cf69146102945780638c7f0936146102bf578063a57efba4146102ea578063bd96bd2014610315578063be4fef291461036c578063c24a0f8b146103cd578063e2a587f4146103f8578063ece6476514610425578063eece3e9014610450575b600080fd5b34801561010257600080fd5b5061010b61047b565b604051808273ffffffffffffffffffffffffffffffffffffffff1673ffffffffffffffffffffffffffffffffffffffff16815260200191505060405180910390f35b34801561015957600080fd5b506101626104a1565b6040518082815260200191505060405180910390f35b34801561018457600080fd5b5061018d6104a7565b604051808215151515815260200191505060405180910390f35b3480156101b357600080fd5b506101bc6104ba565b6040518082815260200191505060405180910390f35b3480156101de57600080fd5b506101e76104c0565b6040518082815260200191505060405180910390f35b34801561020957600080fd5b506102126104c6565b6040518082815260200191505060405180910390f35b34801561023457600080fd5b50610253600480360381019080803590602001909291905050506104cc565b6040518082815260200191505060405180910390f35b34801561027557600080fd5b5061027e6104ef565b6040518082815260200191505060405180910390f35b3480156102a057600080fd5b506102a96104f5565b6040518082815260200191505060405180910390f35b3480156102cb57600080fd5b506102d4610552565b6040518082815260200191505060405180910390f35b3480156102f657600080fd5b506102ff610558565b6040518082815260200191505060405180910390f35b34801561032157600080fd5b5061032a610562565b604051808273ffffffffffffffffffffffffffffffffffffffff1673ffffffffffffffffffffffffffffffffffffffff16815260200191505060405180910390f35b34801561037857600080fd5b506103cb600480360381019080803590602001909291908035906020019092919080359060200190929190803573ffffffffffffffffffffffffffffffffffffffff169060200190929190505050610588565b005b3480156103d957600080fd5b506103e2610667565b6040518082815260200191505060405180910390f35b34801561040457600080fd5b506104236004803603810190808035906020019092919050505061066d565b005b34801561043157600080fd5b5061043a61069c565b6040518082815260200191505060405180910390f35b34801561045c57600080fd5b506104656106a2565b6040518082815260200191505060405180910390f35b600960009054906101000a900473ffffffffffffffffffffffffffffffffffffffff1681565b60075481565b600560149054906101000a900460ff1681565b600a5481565b60005481565b60045481565b600c818154811015156104db57fe5b906000526020600020016000915090505481565b60065481565b600080600a54600b81905550600090505b600c8054905081101561054957600c8181548110151561052257fe5b9060005260206000200154600b600082825403925050819055508080600101915050610506565b600b5491505090565b60015481565b6000600154905090565b600560009054906101000a900473ffffffffffffffffffffffffffffffffffffffff1681565b600560009054906101000a900473ffffffffffffffffffffffffffffffffffffffff1673ffffffffffffffffffffffffffffffffffffffff163373ffffffffffffffffffffffffffffffffffffffff1614156106615783600681905550826007819055508160088190555080600960006101000a81548173ffffffffffffffffffffffffffffffffffffffff021916908373ffffffffffffffffffffffffffffffffffffffff1602179055506001600560146101000a81548160ff0219169083151502179055506006546002546001540202600a819055505b50505050565b60085481565b600c81908060018154018082558091505090600182039060005260206000200160009091929091909150555050565b60035481565b600254815600a165627a7a72305820796f3c5ee3d1d2ca87cf43330dc4d25a3c15271ebfbf7bba3c40288800eea0020029",
  "source": "pragma solidity ^0.4.18;\n\ncontract Perscription {\n\n    //Set by patient/doctor\n    uint public drugID;\n    uint public dosage;\n    uint public numberOfDoses;\n    uint public frequencyOfDose;\n    uint public doctorID = 123456;\n    address public patient;\n\n    bool public signed; //false if no bid acc, true if bid acc and provider signed on\n\n    //agreed upon by pharma and set at time of signature\n    uint public costPerDose;\n    uint public startDate;\n    uint public endDate;\n    address public provider;\n    \n    uint public total;\n    uint private remainingTotal;\n    uint[] public paymentsRecieved;\n\n    modifier authorizedToViewCheck {\n        require (msg.sender == patient || msg.sender == provider); /* || msg.sender == doctorID*/\n        _;\n    } \n\n    modifier signedContract {\n        require(signed);\n        _;\n    }\n\n    function Perscription(uint incDrugID, uint incDosage, uint incNumberOfDoses, uint incFrequencyOfDose) public {\n        patient = msg.sender;\n        drugID = incDrugID;\n        dosage = incDosage;\n        numberOfDoses = incNumberOfDoses;\n        frequencyOfDose = incFrequencyOfDose;\n        signed = false;\n    }\n\n    function providerSignWithTerms(uint accCostPerDose, uint accStartDate, uint accEndDate, address accProvider) public {\n        if (msg.sender == patient) {  //make sure that auction is being ended by the creator themselves\n            costPerDose = accCostPerDose;\n            startDate = accStartDate;\n            endDate = accEndDate;\n            provider = accProvider;\n            signed = true;\n            total = dosage*numberOfDoses*costPerDose;\n        }\n    }\n\n    function recievePayment (uint paymentAmount) public {\n        paymentsRecieved.push(paymentAmount);\n    }\n\n    function remainingPayment() public returns (uint) {\n        remainingTotal = total;\n        for (uint i = 0; i < paymentsRecieved.length; i++) {\n            remainingTotal -= paymentsRecieved[i];\n        }\n        return remainingTotal;\n    }\n\n    function getDosage() public returns (uint) {\n        return dosage;\n    }\n    // A JS FUNCTION ON THE OTHER SIDE THAT CALLS THEM ALL AND COMPILES INTO NICE OBJECT\n}\n",
  "sourcePath": "/Users/jmaarse/lighthouse/solidityContracts/contracts/Perscription.sol",
  "compiler": {
    "name": "solc",
    "version": "0.4.23+commit.124ca40d.Emscripten.clang"
  },
  "schemaVersion": "2.0.0",
  "updatedAt": "2018-05-07T21:08:53.479Z"
}